:1000000045C0000060C000005EC000005CC0000091
:100010005AC0000058C0000056C0000054C0000084
:1000200052C0000050C000004EC000004CC0000094
:100030004AC0000048C0000046C0000044C00000A4
:1000400042C0000040C000003EC000003CC00000B4
:100050003AC0000038C0000036C0000034C00000C4
:1000600032C0000030C000002EC000002CC00000D4
:100070002AC0000028C0000026C0000024C00000E4
:1000800022C0000020C000001EC0000011241FBEBE
:10009000CFEFD0E1DEBFCDBF11E0A0E0B1E0E6EFF1
:1000A000F3E000E00BBF02C007900D92AE31B10744
:1000B000D9F721E0AEE1B1E001C01D92AE31B20747
:1000C000E1F710D096C19CCFCF93DF93EC018881EC
:1000D000882329F021965BD189918111FCCFDF9192
:1000E000CF910895CF93DF93CDB7DEB76E970FB65C
:1000F000F894DEBF0FBECDBF8EE1E0E0F1E0DE019F
:10010000119601900D928A95E1F7BB98B998BA982B
:10011000B898BC98C39AC19AC29AC09AC49A00E08F
:1001200021E048E060E875E280E090E0CCD021E09A
:1001300048E060E875E280E090E05FD0CE01019693
:10014000C3DF83E5BCD013E50F2EFBE9EF2EF12CC6
:10015000F02DB39909C0163409F435C086E4AFD048
:1001600086E415D116E42FC0B19908C0123459F1B4
:1001700082E4A5D082E40BD112E425C0B29908C074
:100180001C3409F18CE49BD08CE401D11CE41BC02D
:10019000B09908C01235B9F082E591D082E5F7D068
:1001A00012E511C0B49908C0133469F083E487D014
:1001B00083E4EDD013E407C0133529F083E57FD045
:1001C00083E5E5D013E5F7018081882364F4E7D067
:1001D000082F8D3029F48DE0DAD08AE0D8D003C022
:1001E000D6D0802F6CD0FFEF2FE181E0F15020407E
:1001F0008040E1F700C00000ACCF0F93CF93DF93B6
:10020000C42FD22FDC01CB01880F991FAA1FBB1F5F
:10021000880F991FAA1FBB1F9C01AD01220F331F1E
:10022000441F551F220F331F441F551F60E070E805
:1002300080E790E0BCD0BA01A901415051096109A1
:100240007109BB27A72F962F852F8093900049B95E
:1002500010929500C63029F0C73049F0C53069F4D6
:1002600011C0E5E9F0E08081826080830BC0E5E9A0
:10027000F0E080818460808305C0E5E9F0E0808162
:1002800086608083013019F0023039F00BC0E5E957
:10029000F0E080818063808305C0E5E9F0E0808143
:1002A00080628083D23029F4E5E9F0E080818860C3
:1002B000808388E18AB9DF91CF910F9108955D9B8A
:1002C000FECF8CB908950F93CF93DF93C42FD22F15
:1002D000DC01CB01880F991FAA1FBB1F880F991F34
:1002E000AA1FBB1F9C01AD01220F331F441F551FC6
:1002F000220F331F441F551F60E070E880E790E035
:1003000056D0BA01A9014150510961097109BB27B1
:10031000A72F962F852F80939800409399001092D5
:100320009D00C63029F0C73049F0C53069F411C0CE
:10033000EDE9F0E08081826080830BC0EDE9F0E0C0
:1003400080818460808305C0EDE9F0E08081866073
:100350008083013019F0023039F00BC0EDE9F0E094
:1003600080818063808305C0EDE9F0E08081806258
:100370008083D23029F4EDE9F0E0808188608083C9
:1003800088E180939A00DF91CF910F910895EBE976
:10039000F0E0908195FFFDCF80939C000895EBE9FC
:1003A000F0E080818823ECF780919C000895A1E221
:1003B0001A2EAA1BBB1BFD010DC0AA1FBB1FEE1FDF
:1003C000FF1FA217B307E407F50720F0A21BB30B2A
:1003D000E40BF50B661F771F881F991F1A9469F7A6
:1003E00060957095809590959B01AC01BD01CF0102
:0603F0000895F894FFCF10
:1003F6000D0A52533233322F4254205465737420FF
:0E0406005265666C6563746F722E0D0A0000FD
:00000001FF
